:100000000C94B5020C94D2020C94D2020C94D2023D
:100010000C94D2020C94D2020C94D2020C94D20210
:100020000C94D2020C94D2020C944F140C940B1426
:100030000C941C220C94D2020C94D2020C94D20286
:100040000C94D2020C94D2020C94D2020C94D202E0
:100050000C94D2020C9426150C94D2020C94D20269
:100060000C94D2020C94D2020C94D2020C94D202C0
:100070000C94D2020C94D2020C94D2020C94D202B0
:100080000C94D2020C94D2020C94D2020C94D202A0
:100090000C94D2020C94D2020C94D2020C94D20290
:1000A0000C94D2020C94D2020C94D20200010101F1
:1000B0000101010101010202020202020202020325
:1000C00003030303030303040404040404040505F5
:1000D00005050506060606060707070707080808B8
:1000E00008090909090A0A0A0B0B0B0C0C0C0D0D67
:1000F0000D0E0E0E0F0F0F101011111112121313FF
:100100001414151516161717181819191A1A1B1B77
:100110001C1D1D1E1E1F20202122222324242526D3
:1001200026272829292A2B2C2D2D2E2F303132320B
:10013000333435363738393A3B3C3D3E3F40414217
:10014000434445464748494A4C4D4E4F50515354FD
:10015000555658595A5B5D5E5F61626465666869B1
:100160006B6C6D6F7072737577787A7B7D7E808231
:10017000838587888A8C8E8F91939596989A9C9E7A
:10018000A0A2A3A5A7A9ABADAFB1B3B5B7BABCBE8A
:10019000C0C2C4C6C9CBCDCFD1D4D6D8DBDDDFE257
:1001A000E4E7E9EBEEF0F3F5F8FAFDFFFFAA7F557F
:1001B000402223252628292A2C2D2F30323335366C
:1001C000383A3B3D3E4042434547494A4C4E5051E8
:1001D000535557595A5C5E6062646668696B6D6F0F
:1001E00071737577797B7D7F81838587898A8C8E12
:1001F00090929496989A9C9E9FA1A3A5A7A8AAAC1A
:10020000AEAFB1B3B4B6B8B9BBBCBEBFC1C2C3C553
:10021000C6C7C9CACBCCCDCED0D1D2D2D3D4D5D6F5
:10022000D7D7D8D9D9DADADBDBDBDCDCDCDCDCDD28
:10023000DDDDDDDCDCDCDCDCDBDBDBDADAD9D9D80C
:10024000D7D7D6D5D4D3D2D2D1D0CECDCCCBCAC9A4
:10025000C7C6C5C3C2C1BFBEBCBBB9B8B6B4B3B1D3
:10026000AFAEACAAA8A7A5A3A19F9E9C9A9896946E
:1002700092908E8C8A89878583817F7D7B79777543
:1002800073716F6D6B6968666462605E5C5A595722
:10029000555351504E4C4A4947454342403E3D3BE1
:1002A0003A3836353332302F2D2C2A29282625236B
:1002B00022350001512B00E100E00000001E001477
:1002C0000004001D0036004A001F001A0016001B23
:1002D000002A00280020000800070006004C002C1F
:1002E000002100150009001900E2004B0022001750
:1002F000000A000500000057002900310000003806
:1003000000000056002900330000003400000036D1
:100310000023001C000B001100000037002400180F
:10032000000D001000E6004E0025000C000E003607
:100330000029002A00260012000F00370050004C50
:1003400000270013003700520051004D002E002DF1
:10035000002F0030004F0000003A000100010001B2
:1003600000010000003B000100010001000100014C
:10037000003C00460049004C00010001003D0047E0
:10038000004A004D00010001003E0048004B004EB5
:1003900000010001003F0001000100010000000118
:1003A00000290001000000010000000100290001F7
:1003B00000000001000000010040000100010001F8
:1003C000000000010041005F005C00590062000174
:1003D00000420060005D005A0062000100430061BD
:1003E000005E005B006300010044005400550056AD
:1003F000005700010045000100010001000100005C
:100400000032190A00047F3F1F64321464321478EA
:100410003C1E1E140A0505010980A101850319016E
:100420002AB700150126B700950175108100C00597
:100430000C0901A101850419012AA002150126A0B9
:1004400002950175108100C005010906A10185050D
:10045000050719E029E715002501950875018102B6
:100460000507190029EF1500250195F07501810296
:100470000508190129059505750191029501750376
:100480009101C005010906A101050719E029E71539
:100490000025019508750181029501750881010506
:1004A00007190029FF150026FF0095067508810031
:1004B0000508190129059505750191029501750336
:1004C0009101C009023B00020100A0FA09040000EA
:1004D000010301010009211101000122400007056B
:1004E000810308000A09040100010300000009213A
:1004F00011010001226D000705820320000A12018C
:100500001001000000089732754901000102000146
:1005100022034500720067006F0044006F007800FE
:10052000200045005A0020005300680069006E005A
:100530006500000030035A005300410020005400C1
:100540006500630068006E006F006C006F0067005C
:10055000790020004C006100620073002000490017
:100560006E00630000000403090411241FBECFEFD6
:10057000DAE0DEBFCDBF23E0A2E8B1E001C01D920A
:10058000A533B207E1F711E0A0E0B1E0E6EAFBE451
:1005900002C005900D92A238B107D9F70E943D1F05
:1005A0000C9492250C940000E8EDF0E080818E7FA1
:1005B00080831092E2001092DA001092E100A0EE27
:1005C000B0E08C9181608C9380818F77808319BC9F
:1005D000A7EDB0E08C918E7F8C9380818F7E80839D
:1005E0001092FB0208952091E4003091E50095E619
:1005F000A9012091EC00822F817020FF06C080911C
:10060000E80080FF06C080E008952091E80022FD08
:100610001AC080912003882389F0853089F0809169
:10062000EB0085FD0FC02091E4003091E5004217FA
:100630005307F9F29150E1F684E0089582E00895BD
:1006400083E0089581E00895EF92FF920F931F9346
:10065000CF937C018B010E94F302C82F811117C038
:100660008091E80085FD0BC08091E8008E77809333
:10067000E8000E94F302882399F3C82F08C0F7010D
:1006800081917F018093F1000150110949F78C2F6E
:10069000CF911F910F91FF90EF90089580912203C9
:1006A00087FF13C08091E80082FF06C08091E800B8
:1006B0008B778093E80004C0809120038111F2CFF2
:1006C0000895809120038823D9F38091E80080FF6A
:1006D000F8CF8091E8008E77ECCF982F9093E900C7
:1006E000242F762F50E0891731F07091EC00209183
:1006F000ED005091F00021FD07C09F5F973071F72A
:100700008093E90081E008953091EB003E7F3093C3
:10071000EB003091ED003D7F3093ED003091EB0028
:1007200031603093EB007093EC002093ED00509318
:10073000F0002091EE0027FDE0CF80E00895CF92F9
:10074000DF92EF92FF920F931F93CF93DF93C8ED49
:10075000D0E088818F7E8883E7EDF0E08081816042
:10076000808384E082BF81E08093FB0288818E7F5A
:10077000888302EE10E0F80110821092DA0081EE18
:10078000C82ED12CF601108288818F7788838881CA
:100790008068888388818F7D888319BC10922003AC
:1007A0001092210310921F0310921E0390EEE92E67
:1007B000F12CF70180818B7F808388818160888321
:1007C00042E060E080E00E946D03F60180818E7F50
:1007D0008083F8018081816080838081886080834C
:1007E000F70180818E7F8083888180618883DF919B
:1007F000CF911F910F91FF90EF90DF90CF900895D0
:10080000FC01809128039091290386179707A0F097
:100810006115710529F49091E8009E779093E800A6
:1008200090E06115710551F4911108C08091E800C4
:1008300082FF34C080E00895BC01F2CF8091200394
:100840008823C1F18530C1F18091E80083FD30C07B
:100850008091E80082FDEACF8091E80080FFE1CF3F
:100860008091F3002091F200382F6115710519F085
:100870002830310558F091E02830310509F090E03A
:100880002091E8002E772093E800CBCF81918093D0
:10089000F100615071092F5F3F4FE7CF8091200336
:1008A000882341F0853041F08091E80083FFBECF7E
:1008B00081E0089582E0089583E008950895089501
:1008C0008091FD020895209124012223C9F02091F6
:1008D000C40227FF15C0E62FE695E695E695EE31B2
:1008E000D8F4E80FF92FF11D677021E030E001C066
:1008F000220F6A95EAF720958281282322830895A2
:10090000FC01329608962191621303C0DF01119712
:100910001C92E817F907B9F70895209124012223C2
:10092000C1F02091C40227FF14C0E62FE695E6959A
:10093000E695EE31F8F4E80FF92FF11D677021E02C
:1009400030E001C0220F6A95EAF78281822B828310
:100950000895FC0132962FEF30E04191641751F079
:100960002F3F19F4411101C0232F3F5F3630A9F703
:100970002F3F09F40895820F911D27FD9A95FC01E0
:10098000628308958091AB0281111092AB020895A9
:100990008091AA029091A902892B9091A802892B9B
:1009A000809382019091AB029923A1F0892B8093CF
:1009B000820180912401882341F18091C40287FF44
:1009C00024C08EE1E4E8F1E090E0815000F591115F
:1009D0000E94C204E091CB02F091CC023097E1F08A
:1009E00080912401882359F08091C40287FF07C0B9
:1009F000809182018093830185E08093820102804F
:100A0000F381E02D82E891E0099486E0DBCF21912B
:100A10002223D9F29F5FD9CF0895E92FEE0FE90F76
:100A2000EE0F8E0F982F977086958695869525E008
:100A3000829FF0011124E059FD4F50E040E080E03A
:100A4000219130E0092E02C0369527950A94E2F7ED
:100A500021703327042E01C0220F0A94EAF7822B5B
:100A60004F5F5F4F4530510559F70895E92FEE0F5D
:100A7000E90FEE0F8E0F982F977041E001C0440FE1
:100A80009A95EAF786958695869595E0899FF00177
:100A90001124E059FD4F30E020E070E05191DF017A
:100AA0001197CB01022E02C0969587950A94E2F722
:100AB000817081958527842385278C932F5F3F4FF5
:100AC0002530310559F7089580916F0290913E02CB
:100AD000981301C008958F5F8770FACF882341F083
:100AE00080959091AA0289238093AA020C94C8044D
:100AF0000895882339F09091AA02982B9093AA0226
:100B00000C94C804089520913502309136022817BC
:100B1000390771F09093360280933502E091CB0251
:100B2000F091CC02309721F00084F185E02D0994FA
:100B3000089520913302309134022817390771F05B
:100B40009093340280933302E091CB02F091CC0277
:100B5000309721F00680F781E02D099408951092D6
:100B6000A9021092A8020E94C80490E080E00E94AE
:100B7000990590E080E00C9483056093AC0270933B
:100B8000AD028093AE029093AF020C94AF05882320
:100B900079F19CEF980F913A38F4682F82E891E050
:100BA0000E9463040C94C80490E2980F983088F473
:100BB000877021E030E0A90102C0440F551F8A95DB
:100BC000E2F7CA0180959091AA0289238093AA0234
:100BD000E9CF9BE5980F933020F490E080E00C94EF
:100BE0009905885A873120F490E080E00C948305C1
:100BF0000895CF93C82F882309F467C08CEF8C0F1A
:100C0000813AC0F580912401882311F18091C402BA
:100C100087FF1EC0EC2FE695E695E695F0E0EE57CF
:100C2000FE4F828190E04C2F477021E030E002C0FF
:100C3000220F331F4A95E2F782239323892B91F0E9
:100C40006C2F82E891E00E9463040E94C8040AC0ED
:100C5000E4E8F1E08AE891E02191C21789F38E1768
:100C60009F07D1F76C2F82E891E00E948D04CF910D
:100C70000C94C80480E28C0F883068F4C77021E0BF
:100C800030E001C0220FCA95EAF78091AA02822BB8
:100C90008093AA02ECCFEBE5EC0FE33040F4F0E0F8
:100CA000E05BFE4F808190E0CF910C949905C85A8B
:100CB000C73158F4EC2FF0E0EE0FFF1FED5AFE4F56
:100CC00080819181CF910C948305CF910895E0911B
:100CD000CB02F091CC02309721F00190F081E02D11
:100CE000099480E00895FA01811101C0FB01099483
:100CF0008091E402982F9E7F29F481708260809316
:100D0000E40208958635E8F381708465F8CFAF92E8
:100D1000BF92DF92EF92FF920F931F93CF93DF93D7
:100D2000082F162FE901E42FF0E0E455FF4F611181
:100D300011C0E4915E2F4E2F4983E8835A831B82B2
:100D4000DF91CF911F910F91FF90EF90DF90BF90B7
:100D5000AF900895E62EF12C4491D42EE42FF0E0CC
:100D600026E0829FC00111242FEF30E0B9010E94DC
:100D70001623802F90E0880F991F55E5569FD001CC
:100D8000579FB00D11248A1B9B0B982F990F890F29
:100D90005901AE18BF08AE9ED001AF9EB00DBE9EE9
:100DA000B00D11245B2F189F80011124012F1127F2
:100DB0005901A01AB10AAE9E8001AF9E100DBE9ED1
:100DC000100D11245901A81AB108AE9CC001AF9CA6
:100DD000900DBE9C900D1124892F9927281B390B4B
:100DE0002E9FC0012F9F900D3E9F900D1124E92F43
:100DF00062307105A1F050F46115710509F49CCFC2
:100E00006130710581F0EB2F512F96CF6430710561
:100E100069F080F06630710509F48ECFF4CFE42FCD
:100E20004B2F592F89CFE42F412F86CFEB2F542FF3
:100E3000492F82CF4B2F5D2DE12F7ECF9091C402A1
:100E400092FF06C0282F28712830F9F4877F84602C
:100E500093FF06C0282F28712831F1F4877E846122
:100E60002091C50220FF06C0382F38713830D9F4E0
:100E7000877F816021FF06C0282F28712831D1F497
:100E8000877E816194FD877E0895282F2471243008
:100E9000F9F68B7F8860DCCF282F2471243101F78D
:100EA0008B7E8861DDCF382F3171313019F78E7F1D
:100EB0008860E0CF282F2171213121F78E7E886153
:100EC000E1CFCF93DF93972F70E026E0929F600DE4
:100ED000711D1124FB0134E5839FE00DF11D1124E8
:100EE000EE0FFF1FEF54FD4FC591D491CE01C238D4
:100EF000D105B9F1E8F5C133D10509F499C050F530
:100F0000C932D10509F48DC0CA32D10509F497C0A0
:100F1000C11542E5D40708F0B6C0C11521E5D207D6
:100F200008F024C1C83ED10508F09DC0C03ED105DF
:100F300068F5C83AD10508F089C0C53AD10508F06E
:100F4000EDC0C130D10511F1209709F443C02497B9
:100F5000E8F440C0C533D10509F45CC0C933D105FC
:100F6000B9F62091C402237089F080EE90E00EC0A3
:100F7000C33ED10591F168F4C03ED105F9F0C23EFF
:100F8000D10531F62091C40222FD20C0DF91CF911E
:100F90000895C63ED10561F1C73ED10581F1C43E39
:100FA000D10509F0B5CF2091C50221FFEFCF809187
:100FB000C40284FD0FC087EE90E0E8CF2091C40208
:100FC00020FD01C13091C50230FFE0CF83EE90E0FB
:100FD00024FFDCCF90E080E0D9CF2091C40222FD35
:100FE000F5C03091C50230FDC0CF24FFCFCFF2CF86
:100FF0002091C40223FFCACF24FDECCFDCCF209187
:10100000C40223FDE6C03091C50231FFEECF84EE6D
:1010100090E0BCCF2091C40225FFB8CF89E290E0D8
:10102000B5CF2091C40225FFB1CF85E390E0AECFCC
:101030002091C40226FFAACF8AE290E0A7CF209198
:10104000C40226FFA3CF81E390E0A0CFCF3BD10520
:1010500008F6C85AD0E0CC0FDD1FCD5ADE4F88818C
:101060009981946493CFC11530E5D30708F062C02D
:10107000C11540E4D40708F059C0DA95C115DF4125
:1010800008F484CFA7CFC11536E5D30718F5C115ED
:1010900045E5D40708F080C0C11584E5D80708F0FD
:1010A00076C09C2F96959695AE0143705527C11535
:1010B000D34508F460C021E030E002C0220F331FA6
:1010C0004A95E2F740E2949FC0011124822B932BB2
:1010D0009A685CCFC1153AE5D30778F4C11549E5A4
:1010E000D40708F063C0C11588E5D80708F472CFAB
:1010F0009C2F8827806F906A49CFCE01905681152A
:10110000904208F067CF8D2F8F710E941E0790E0EC
:10111000982F882788279F718C2B46C0C55AD0E00E
:10112000C05BDE4F888190E0906430CFCE019F702D
:10113000906A2CCF9E01E4E036952795EA95E1F779
:1011400023708C2F86958695837030E2839FC00133
:101150001124922BC37021E030E002C0220F331F14
:10116000CA95E2F7822B932B9C6810CF9C2F88277F
:10117000816F906A0BCF21E030E002C0220F331F55
:101180004A95E2F740E2949FC0011124EBCF9C2FD7
:101190008827846F906AFACE8C2F0E941E0790E0F9
:1011A000982F882788279F719062F0CE8C2F8F70A0
:1011B0000E941E0734E0D695C7953A95E1F7CF70A7
:1011C0009C2F9069E3CE89E390E0E0CE82EE90E040
:1011D000DDCE86EE90E0DACEBF92CF92DF92EF9234
:1011E000FF920F931F93CF93DF938C01C090C702A0
:1011F000D090C802E090C902F090CA028091AC027F
:101200009091AD02A091AE02B091AF02C82AD92A46
:10121000EA2AFB2ACFE1D0E0BC2ED701C6010C2E72
:1012200004C0B695A795979587950A94D2F780FD47
:101230000EC0219788F7B12C8B2DDF91CF911F9194
:101240000F91FF90EF90DF90CF90BF900895B8017D
:101250008C2F0E946107019761F3EECFCF93DF934C
:10126000EC010E94EC08BE01DF91CF910C94610764
:101270000E942E09292F2F7092959F7092509E30B8
:1012800078F4E92FF0E0EC56FA4D0C943E23803FC1
:1012900019F020F4883E20F481E00895843FE1F3C2
:1012A00080E00895883EC0F3813FD1F7F5CF822FCB
:1012B000869586958695089527982F98089526985F
:1012C0002E98089525982D98089556985E9808951B
:1012D000279A2F9A0895269A2E9A0895259A2D9A3C
:1012E0000895CF92DF92EF92FF92CF936B017C0132
:1012F000C701AA27BB27C0E10097A105B10519F4D2
:10130000D701CB01C0E0492F5A2F6B2F772741150A
:1013100051056105710519F0C85FDB01CA01AC0117
:10132000BD01E4E07695679557954795EA95D1F725
:10133000411551056105710519F0CC5FDB01CA014A
:10134000AC01BD0132E076956795579547953A9582
:10135000D1F7411551056105710519F0CE5FDB012B
:10136000CA01B695A79597958795892B8A2B8B2BC4
:1013700009F0CF5F0E9465090E9462090E945F091F
:101380000E945C09C150C73040F4EC2FF0E0EE55EC
:10139000FA4D0C943E230E946E09C701B601CF910D
:1013A000FF90EF90DF90CF9008950E946E090E9409
:1013B0006B09F3CF0E946E090E946809EECF0E946C
:1013C0006E090E946B09F8CF0E9471096093C702F1
:1013D0007093C8028093C9029093CA020C94AF051F
:1013E0000F931F9341E050E060E070E004C0440FB1
:1013F000551F661F771F8A95D2F7CB01BA016095FA
:101400007095809590950091C7021091C802209127
:10141000C9023091CA0260237123822393231F9152
:101420000F910C94E4099091A702809589238093F1
:10143000A702282F277071F4282F082E000C330BD9
:101440009217130639F08595859585950E94F009C8
:101450001092A70208950F931F9341E050E060E0BF
:1014600070E004C0440F551F661F771F8A95D2F79E
:101470008091C7029091C802A091C902B091CA029E
:101480008A019B01082B192B2A2B3B2BC901B80180
:101490001F910F910C94E40920982898219829987D
:1014A00022982A9823982B9852985A9853985B9888
:1014B0003E98469808958098889A8198899A849849
:1014C0008C9A85988D9A86988E9A87988F9A089587
:1014D000CF93DF9300D00F92CDB7DEB7909120036A
:1014E000943019F589837B836A8382E08093E900D5
:1014F0008FEF9091E800815095FD06C095ED9A958B
:10150000F1F700008111F5CF8091E80085FF0DC053
:1015100050E040E063E070E0CE0101960E942403B9
:101520008091E8008E778093E8000F900F900F90E5
:10153000DF91CF910895BC0184E00C94680ABC014E
:1015400083E00C94680ACF93DF93EC01809124012F
:101550008823B1F18091C40287FF32C060E282E04B
:101560008093E9008FEF9091E800815095FD06C0CF
:1015700095ED9A95F1F700008111F5CF8091E80083
:1015800085FF1BC08091240170E050E040E0811194
:1015900004C050E040E068E070E0CE010E94240307
:1015A0008091E8008E778093E80080E2FE01AEEF44
:1015B000B2E001900D928A95E1F7DF91CF91089505
:1015C00068E081E0CDCFEF92FF920F931F93CF930E
:1015D000DF930E9465090E9462090E945F090E94D0
:1015E0005C0988E8E82EF12C8FEF90E0F7019183F9
:1015F00080830AE810E0F80191838083CCE8D0E092
:10160000998388830E946E09FFEF20E782E0F15002
:1016100020408040E1F700C000000E946B099FEF6E
:10162000E0E7F2E09150E040F040E1F700C0000058
:101630000E9468092FEF80E792E02150804090409F
:10164000E1F700C000000E946209EFEFF0E722E03E
:10165000E150F0402040E1F700C000000E945F0927
:101660008FEF90E7E2E081509040E040E1F700C06A
:1016700000000E945C098091B2028770FFEF8F9F8B
:10168000C001112495958795959587959927F70120
:1016900091838083F80191838083998388830E945A
:1016A00065090E9462090E945F09DF91CF911F9135
:1016B0000F91FF90EF900C945C09CF9384E090E041
:1016C0000E94E724C82F81E290E00E94E724982F2F
:1016D0008C2FCF910895CF92DF92EF92FF926B0102
:1016E0007C010E947806B701A60188E090E0FF9097
:1016F000EF90DF90CF900C940D258091E802882325
:1017000019F081508093E8026091E4027091E50243
:101710008091E6029091E7020C946B0B8091E802B5
:10172000833018F48F5F8093E8026091E402709137
:10173000E5028091E6029091E7020C946B0BE4EED7
:10174000F2E083E0808311828FEF828383831482AF
:1017500060817181828193810C946B0B6FEE7EEFBF
:1017600090E080E00E94192560E082E090E00E9415
:10177000FB2460E083E090E00E94FB241092AC0226
:101780001092AD021092AE021092AF0260E084E0BF
:1017900090E00E94FB2460E081E290E00E94FB2444
:1017A00060E085E090E00E94FB2460E086E090E04D
:1017B0000E94FB246FEF87E090E00E94FB2440E052
:1017C00050E0BA0188E090E00E940D2560E08DE0D5
:1017D00090E00E94FB2440E050E0BA0188E190E0F4
:1017E0000E940D2560E087E190E00E94FB2440E02C
:1017F00050E0BA018CE190E00E940D2560E080E2AB
:1018000090E00E94FB2440E050E0BA0188E190E0C3
:101810000E940D251092B2021092B3021092B402EF
:101820001092B50284E080618093B2024091B202CE
:101830005091B3026091B4027091B5028FE090E0D4
:101840000E940D2540E050E0BA0183E190E00C9445
:101850000D251092AA0280912401E4E8F1E088238A
:1018600059F08091C40287FF07C08EE1DF011D920D
:101870008A95E9F70C94AF0586E0F8CF1F93CF93D4
:10188000DF93CDB7DEB7AA970FB6F894DEBF0FBED1
:10189000CDBF82E293E02091F100FC012193CF01C2
:1018A000F3E08A329F07B9F780912303833009F46C
:1018B0006FC0B8F4813009F446C0823009F4B0C07A
:1018C0008091E80083FF7BC28091220390912303E3
:1018D0009A3008F074C2E92FF0E0E755FA4D0C9405
:1018E0003E238A3009F48BC08B3009F46EC08930F6
:1018F00039F780912203813219F780912603909164
:1019000027030297E8F68091E800877F8093E8003C
:101910008091E80082FF37C09091F3008091F2003F
:10192000029729F48091F1008B7F813021F480911E
:10193000F1008093FD028091E8008B778093E800AE
:101940000E944E03BDCF80912203813A09F0B8CFA7
:101950008091E800877F8093E80080912603909132
:101960002703892B61F460E28EEF92E070E00E9421
:1019700000048091E8008B778093E800A1CF60E0BD
:1019800090E080E0F3CF809120038111C1CF98CF08
:1019900080912203813A09F093CF809126039091A0
:1019A0002703892B09F08CCF8091E800877F8093F3
:1019B000E8008091E80080FFFCCF809124018093B3
:1019C000F1008091E8008E77B9CF809122038132B7
:1019D00009F076CF8091260390912703892B09F097
:1019E0006FCF8091E800877F8093E8000E944E03CC
:1019F00080912403809324010E94290C61CF80915F
:101A00002203813209F05CCF8091E800877F8093C8
:101A1000E8000E944E03809125038093FC0250CF82
:101A200080912203813A09F04BCF8091E800877FB3
:101A30008093E8008091E80080FFFCCF8091FC0259
:101A4000BECF803899F0823809F0B9C18091260361
:101A50008F70873008F0B3C18093E9008091EB006C
:101A600085FB882780F91092E90006C080911E034B
:101A700090911F03911182609091E800977F90935D
:101A8000E8008093F1001092F1008091E8008E77D9
:101A900092C1882309F480C1823009F090C18091FD
:101AA0002403811183C1809126038F702FEF280FAB
:101AB000263008F084C18093E9002091EB0020FFDC
:101AC00075C1933031F48091EB0080628093EB001C
:101AD0006DC19091EB0090619093EB0021E030E0BC
:101AE00001C0220F8A95EAF72093EA001092EA00DB
:101AF0008091EB008860EACF811161C110912403CD
:101B00001F778091E3008078812B8093E3008091A0
:101B1000E800877F8093E8000E944E038091E800F0
:101B200080FFFCCF8091E30080688093E30082E037
:101B3000111183E08093200342C18058823008F065
:101B40003EC180912403909125038C3D23E09207B0
:101B5000A1F583E08A838AE289834FB7F894DE0196
:101B6000139620E03EE051E2E32FF0E0509357005F
:101B7000E49120FF03C0E295EF703F5FEF708E2F7E
:101B800090E0EA30C0F0C7968D939D932F5F24318B
:101B900059F74FBF8091E800877F8093E8006AE2A1
:101BA00070E0CE0101960E9400048091E8008B77DE
:101BB0008093E80004C1C096E7CF4091260350917E
:101BC0002703292F33272330310509F444C078F542
:101BD0002130310509F46FC08BE390E0E3ECF4E0D1
:101BE0002230310509F0EBC02091E800277F2093D7
:101BF000E80020912803309129038217930708F405
:101C00009C0140E02115310509F064C0411162C01A
:101C10008091E80082FDC9CF80912003882329F2BA
:101C2000853019F28091E80083FFF2CFBECF2132D8
:101C30003105A9F12232310509F0C1C04115510524
:101C400009F443C04130510509F0B9C08DE690E078
:101C5000E6E1F4E0C9CF992781309105C1F0009702
:101C600059F0029709F0ABC0E0E1F5E0E4918E2F66
:101C700090E0E0E1F5E007C0E6E6F5E0E4918E2FC4
:101C800090E0E6E6F5E0009709F499C0ADCFE4E313
:101C9000F5E0E4918E2F90E0E4E3F5E0F4CF411518
:101CA000510571F04130510509F089C089E090E09B
:101CB000EEEEF4E099CF82E190E0EEEFF4E094CF25
:101CC00089E090E0E5EDF4E08FCF80E490E0E3E898
:101CD000F4E08ACF80912003882309F466CF853011
:101CE00009F463CF8091E80083FD5FCF8091E80025
:101CF00082FD8ECF8091E80080FF84CF9091F30029
:101D00008091F2002115310519F08830910550F0CD
:101D100041E0089709F040E08091E8008E778093D9
:101D2000E80070CF44914093F10031962150310981
:101D30000196E8CF803809F042C08091E800877FA3
:101D40008093E800809121038093F1009ECE811161
:101D500036C010912403123090F58091E800877FFF
:101D60008093E800109321030E944E03112311F089
:101D700084E005C08091E30087FDFACF81E0809385
:101D8000200342E061EC81E00E946D0342E261ECDD
:101D900082E00E946D0313C080912403813079F4A6
:101DA00081E0933009F080E080931F031092E900F6
:101DB0008091E800877F8093E8000E944E03809125
:101DC000E80083FF0AC08091E800877F8093E800E5
:101DD0008091EB0080628093EB00AA960FB6F89496
:101DE000DEBF0FBECDBFDF91CF911F910895CF937E
:101DF000C82F873070F58091180190911901892BB7
:101E000089F564E670E080E40E944922909319010C
:101E100080931801892BD1F464E670E082E10E947E
:101E2000A5229093190180931801892B79F481E000
:101E300090E001C0880FCA95EAF764E670E08095EB
:101E40000E94A5229093190180931801CF910C94C0
:101E5000F8228A30B9F040F4883071F0893079F096
:101E6000209A2898CF9108958C3091F070F08D30A1
:101E7000B9F73E9A4698F6CF219A2998F3CF229A3D
:101E80002A98F0CF239A2B98EDCF529A5A98EACFFE
:101E9000539A5B98E7CFCF93DF938091E40280FD64
:101EA0000BC0ECEAF1E011821082128213823496A8
:101EB00051E0E83EF507B9F7CCEAD1E0FE019281A6
:101EC00020813181892F291708F4822F381708F4CF
:101ED000832F8383381B3183281B2083981B928395
:101EE000349681E0E83EF80751F70E94432264E609
:101EF00070E084E80E94492264E670E088810E94D4
:101F0000A52264E670E089810E94A52264E670E063
:101F10008A810E94A52264E670E08B810E94A5223E
:101F2000249691E0C83ED90739F70E94F822579AC3
:101F30003BB13F772BB120684FB7F8948CEA91E022
:101F4000FC015191CF0168E02BB9000000C057FFA0
:101F50003BB9550F000000C000C000C03BB900C035
:101F60006A9591F7F1E0883E9F0751F74FBF8FE5E3
:101F700094E00197F1F700C00000DF91CF91089540
:101F80008F929F92AF92BF92CF92DF92EF92FF9289
:101F90000F931F93CF93DF93FC01B280948081E075
:101FA0008483C8EED1E00CEA11E08BE4A82E8824EB
:101FB0008394EE24EA94F12C2BE4C22ED12C9110C0
:101FC0001DC01B821A8298014A81698188810E9402
:101FD000870625960C5F1F4F82E0C333D80779F739
:101FE000DF91CF911F910F91FF90EF90DF90CF90F5
:101FF000BF90AF909F908F900C944B0F2B8122231A
:1020000009F121502B833C818A2D821B311101C0A3
:10201000822F9091E702899FC0011124B6010E948E
:1020200016236A83211104C0332311F01C82AB8272
:1020300022E02B1540F28091E50288838091E60230
:102040008983C1CF0E949F23823091400CF0BBCF87
:1020500082E08B15C0F40E949F23B7010E942A23BF
:10206000888322E02B1590F40E949F232091E602A2
:102070002695622F70E00E942A23280F29831A8256
:10208000AB828C82A0CF8091E502EACF2091E6025C
:10209000F5CFEF92FF921F93CF93DF93EC018CEA81
:1020A000E82E81E0F82E10E08C8197014091E70244
:1020B0006091E602810F0E9487061F5E84E0E80EB1
:1020C000F11C1F3F89F70E944B0F9A818C8190FF72
:1020D00008C08F5F8C83DF91CF911F91FF90EF90AD
:1020E00008958150F7CFBF92CF92DF92EF92FF9287
:1020F0000F931F93CF93DF93FC018281DD24DA9449
:1021000080FD02C0DD24D3940CEA11E0D0E0C0E0F1
:102110002FE0B22EF801118210821282138294E015
:10212000E92EF12CC12C8091A9018C0D80310CF489
:102130003DC06B2D0E940823892F082E000C990B9F
:102140008C179D0791F48091E7028E9DA0018F9DD1
:10215000500D1124559547955595479598016091D7
:10216000E6028091E5020E948706CD0CF1E0EF1AAD
:10217000F108C9F621960C5F1F4FCF30D10551F6FB
:102180000E944B0F8091A90191E0D91215C08111D5
:1021900011C08EE08093A901DF91CF911F910F9123
:1021A000FF90EF90DF90CF90BF90089587FFC5CF4D
:1021B000815FC3CF8150EECF90E00196BE010E94B7
:1021C0002A23E8CF0F931F93CF93DF93CCEAD1E07C
:1021D000FE011182108212821382349681E0E83E61
:1021E000F807B9F710E000E08091AA01082E000C72
:1021F000990B081719078CF180911601082E000C15
:10220000990B801791074CF19E014091E702609174
:10221000E6028091E5020E9487060F5F1F4F249619
:102220000F30110509F70E944B0F80911501909115
:10223000AA01980F9093AA0120911601280F2093CC
:102240001601121614F49E301CF08195809315012E
:10225000DF91CF911F910F910895198218821A82F0
:102260001B82DBCF8F929F92AF92BF92CF92DF9271
:10227000EF92FF920F931F93CF93DF93EC014C816A
:10228000042F10E09801D8010E9483259B01AC0126
:102290000E944E254B015C01E0E2F0E0E01BF10BF7
:1022A000A5E5B0E0AC019B010E944E256B017C01CD
:1022B0009F01DF010E9444239B01AC010E9459252C
:1022C0009B01AC01280D391D4A1D5B1DC701B601DC
:1022D0000E946125F22E822F90E039E23F15D8F15D
:1022E00043E0249F9001112435952795122F1095D6
:1022F0009CEAC92E91E0D92E00E085E5E82EEF1882
:102300008E2D01FD8F2D9601412F6091E6020E94D6
:1023100087060F5F54E0C50ED11C0F3089F70E946D
:102320004B0F9C8181E0992319F0903219F48FEFC3
:102330008093170180911701890F8C83DF91CF91D2
:102340001F910F91FF90EF90DF90CF90BF90AF90D3
:102350009F908F90089525E530E0A901481B590B07
:10236000CA019A01220F331F280F391F37FFBCCF34
:102370002F5F3F4FB9CFEF92FF920F931F93CF93F1
:10238000DF938C01CCEAD1E0F12CE12CF8019481AF
:102390006091E6028091E502F7E0EF16F104FCF4AB
:1023A0009923F9F09E014091E7020E9487062FEFE2
:1023B000E21AF20A24968FE0E816F10439F70E9437
:1023C0004B0FF801848190E00196817099278483F6
:1023D000DF91CF911F910F91FF90EF900895992376
:1023E00009F39E0140E0E1CF9091E40290FF0DC01F
:1023F000ECEAF1E08183608342831382349691E0BA
:10240000E83EF907B9F70C944B0F08950F931F930B
:10241000CF93DF9300D000D0CDB7DEB78C01809191
:10242000AB0181110AC09E012F5F3F4F4FEF6FEF4D
:102430000E9487068A818093AB01F8016481613034
:1024400069F08091AB0140E0662361F040E06230CA
:1024500011F44091AB0180E060E004C06091AB01F9
:1024600040E080E00E94F411F801848190E0019640
:1024700063E070E00E942A2384830F900F900F90F6
:102480000F90DF91CF911F910F910895CF93DF931C
:1024900000D000D0CDB7DEB79091E40290FF0AC023
:1024A0009E012F5F3F4F0E9487064B8169818A8181
:1024B0000E94F4110F900F900F900F90DF91CF9129
:1024C0000895CF93DF93EC01EC81F0E0EF54FE4FE1
:1024D0004491E4EEF2E0628181810E9446128C8197
:1024E0008F5F8C83DF91CF910895CF93DF93EC01C1
:1024F000E4EEF2E0438162818C810E9446128C817D
:102500008F5F8C83DF91CF9108955F926F927F925E
:102510008F929F92AF92BF92CF92DF92EF92FF92F3
:102520000F931F93CF93DF9300D000D0CDB7DEB7CA
:10253000182F762E042F622E9091E40290FF29C06E
:10254000E92FE695AE2FB0E0AB5DBE4F8C91809346
:10255000E9029E7F923089F59E012F5F3F4F812FC8
:102560000E9487064B8169818A810E94F411109331
:10257000E5027092E6020093E702662051F0609156
:10258000E4027091E5028091E6029091E7020E94D8
:102590006B0B0F900F900F900F90DF91CF911F91C9
:1025A0000F91FF90EF90DF90CF90BF90AF909F90F2
:1025B0008F907F906F905F900895823019F4009112
:1025C000E702D5CF863019F41091E502D0CF8930DB
:1025D000D9F3893161F6E9518E2F8170582EE69535
:1025E000F0E0E455FE4FA590B490BB248CEAE82EB1
:1025F00081E0F82ED12CC12C9FE0892E912CC601B0
:10260000B4010E941623812F511013C0860F970129
:10261000402F672D0E948706CA0CDB1C84E0E80E61
:10262000F11C88EEE81681E0F80649F70E944B0F8E
:102630009ECF861BECCFE4EEF2E043812CE0421B00
:1026400008F440E021E0628181810C948512E4EE7F
:10265000F2E043812CE0420F08F44FEF21E0628169
:1026600081810C948512E4EEF2E062812FEF621B0F
:1026700008F460E021E0438181810C948512E4EE4E
:10268000F2E062812FEF620F08F46FEF21E04381E7
:1026900081810C948512E4EEF2E0818121E0438196
:1026A00062818C500C948512E4EEF2E0818121E08D
:1026B00043816281845F0C94851280E290E0909364
:1026C0001901809318018091A20181110EC00E940E
:1026D000432281E08093A2012FEF83ED90E321500C
:1026E00080409040E1F700C0000064E670E080E4C4
:1026F0000E9449229093190180931801892B09F0B7
:102700004EC064E670E080E00E94A522909319011B
:1027100080931801892B09F042C064E670E080E0E4
:102720000E94A5229093190180931801892BB9F575
:1027300064E670E08FE30E94A522909319018093D4
:102740001801892B61F50E94F82264E670E080E4AC
:102750000E9449229093190180931801892BF9F462
:1027600064E670E08CE00E94A522909319018093AA
:102770001801892BA1F464E670E080E00E94A52294
:102780009093190180931801892B49F464E670E055
:102790008FE30E94A52290931901809318010E9453
:1027A000F822809118010895CF93873050F58091D9
:1027B000180190911901C0E0892B71F464E670E072
:1027C00081E40E9449229093190180931801892B7A
:1027D00031F0C0E00E94F8228C2FCF91089584E65A
:1027E00090E00E94D42297FF05C090931901809336
:1027F0001801EFCFC82FC09510921901109218013F
:10280000E9CFCFB18FB1869586958C73C3708C2B31
:10281000C82FC095E1CF1F920F920FB60F921124CF
:102820002F933F934F935F936F937F938F939F93D8
:10283000AF93BF93CF93DF93EF93FF93D091E900D2
:10284000DF708091EC00C82FC17080FDC0E810924D
:10285000E9008091F000877F8093F00078940E94D7
:102860003E0C1092E9008091F00088608093F000A7
:10287000CD2BCF70C093E900FF91EF91DF91CF9105
:10288000BF91AF919F918F917F916F915F914F9188
:102890003F912F910F900FBE0F901F9018951F9290
:1028A0000F920FB60F9211242F933F934F935F9384
:1028B0006F937F938F939F93AF93BF93EF93FF9308
:1028C0008091E10082FF09C08091E20082FF05C093
:1028D0008091E1008B7F8093E1008091DA0080FF9E
:1028E00024C08091D80080FF20C08091DA008E7FC4
:1028F0008093DA008091D90080FF9BC080E189BD80
:1029000082E189BD09B400FEFDCF81E08093200300
:102910008091FB02811109C00E94D4020E949F0392
:102920008091E20084608093E2008091E10080FF6A
:1029300017C08091E20080FF13C08091E2008E7F7B
:102940008093E2008091E20080618093E2008091B8
:10295000D80080628093D80019BC85E08093200362
:102960008091E10084FF29C08091E20084FF25C0AE
:1029700080E189BD82E189BD89B5982F917080FF82
:10298000FBCF8091D8008F7D8093D8008091E100AB
:102990008F7E8093E1008091E2008F7E8093E20041
:1029A0008091E20081608093E2008091210388237E
:1029B00009F445C084E0809320038091E10083FF07
:1029C00027C08091E20083FF23C08091E100877FD0
:1029D0008093E10082E08093200310922103809194
:1029E000E1008E7F8093E1008091E2008E7F8093F2
:1029F000E2008091E20080618093E20042E060E0CA
:102A000080E00E946D038091F00088608093F00068
:102A1000FF91EF91BF91AF919F918F917F916F91B6
:102A20005F914F913F912F910F900FBE0F901F908C
:102A3000189519BC109220031092FB0276CF80915A
:102A4000E30087FD93E090932003B7CF78941F9223
:102A50001FB61F9211248F939F93AF93BF938091C2
:102A60002A0390912B03A0912C03B0912D03019682
:102A7000A11DB11D80932A0390932B03A0932C03D7
:102A8000B0932D03BF91AF919F918F911F901FBE67
:102A90001F9018952FB7F89480912A0390912B03DB
:102AA000A0912C03B0912D032FBF08950F931F9376
:102AB000CF93DF93C62FD42F022FFC01828188236E
:102AC000A1F0609330030E944A1590932F038093E6
:102AD0002E03C77081E001C0880FCA95EAF7DF9125
:102AE000CF911F910F910C94790580913003681359
:102AF00043C020912E0330912F034FB7F89480915B
:102B00002A0390912B03A0912C03B0912D034FBF6A
:102B1000821B930B883C910578F510E21D0F6D1711
:102B2000B9F080E2860F883040F4C77081E001C0C0
:102B3000880FCA95EAF70E946E05183048F481E0C4
:102B40009D2F977001C0880F9A95EAF70E9479052A
:102B5000802F0E94F905802F0E94C705183098F435
:102B6000D77081E001C0880FDA95EAF7DF91CF9145
:102B70001F910F910C946E05C77081E001C0880F02
:102B8000CA95EAF7F3CFDF91CF911F910F91089586
:102B90006091E402669570E04BE050E08AE091E0DD
:102BA0000E94DA24892B19F481E08093EA020E94C2
:102BB0004A159093DF028093DE0208959091E4021B
:102BC00090FF36C09170811129C092609093E40209
:102BD000662351F06091E4027091E5028091E60273
:102BE0009091E7020E946B0B6091E402669570E0A1
:102BF0004BE050E08AE091E00E94DA24892BA9F0B2
:102C00001092EA0281E08093E10220E04091E70225
:102C10006091E6028091E5020C9485128B3210F0EF
:102C20009465D4CF880F982BD1CF0E94C815EACFD6
:102C300008958091E4028695815009F48AE261E06A
:102C40000C94DE158091E40286958F5F8B3208F03C
:102C500081E061E00C94DE159091E40290FF07C0E2
:102C60009695981720F0961710F40C94221661E0B0
:102C70000C94DE154F925F926F927F928F929F928B
:102C8000AF92BF92CF92DF92EF92FF920F931F937A
:102C9000CF93DF9300D000D00F92CDB7DEB77C0189
:102CA000FC0183819481892B39F01081D180812F9F
:102CB0008D218F3F09F068C50F900F900F900F90F6
:102CC0000F90DF91CF911F910F91FF90EF90DF90C8
:102CD000CF90BF90AF909F908F907F906F905F90BC
:102CE0004F9008950E94EC08082F682F89819A81DF
:102CF0000E943605E12FF0E026E0D29EE00DF11DA6
:102D0000112434E5039FE00DF11D1124EE0FFF1F88
:102D1000EF54FD4F059114910A328DE5180709F023
:102D200088C0F70182818823C9F18091B20291E0C5
:102D3000980F9770887F953008F4892B8093B202A2
:102D40008091B2028770FFEF8F9FC001112495958B
:102D5000879595958795992790938900809388000A
:102D600090938B0080938A0090938D0080938C00C9
:102D70004091B2025091B3026091B4027091B502D9
:102D80008FE090E00E940D256091C7027091C8020B
:102D90008091C9029091CA020E947109F701928143
:102DA000992309F402C5109230030230FCE51F0795
:102DB00008F484C106312CE5120738F098012B5F26
:102DC0003C452730310508F079C10E945D0B909396
:102DD000C5028093C4020F303CE5130709F44FC1CC
:102DE00008F0C9C008309CE5190709F432C108F0A1
:102DF0009EC00430FCE51F0709F41FC108F084C021
:102E000002303CE5130709F410C103301C4509F4F6
:102E100010C16091C4021091C50284E090E00E944C
:102E2000FB24612F81E290E00E94FB240E94290C88
:102E30002FC00C322DE5120709F44CC0043F3CE5CD
:102E4000130709F452C098F4093D9CE5190709F4E9
:102E500048C00A3DECE51E0709F453C0083DFCE5F7
:102E60001F0709F09BCF26E241EE61EE0EC0063F40
:102E70002CE5120709F441C0E0F127E245EE66EEC9
:102E8000073F8CE5180709F089CFC7010E94561546
:102E90008091A702877009F40FCFF7018281882300
:102EA00009F40ACF82E00F900F900F900F900F90CF
:102EB000DF91CF911F910F91FF90EF90DF90CF9016
:102EC000BF90AF909F908F907F906F905F904F904A
:102ED0000C94130AF70182818823D1F261E081E02A
:102EE00028C127E245EE65EED0CF26E241EE60EE46
:102EF000CCCF27E245EE64EEC8CF26E241EE62EE8B
:102F0000C4CF28E241E0EFCF8091C4028061063057
:102F10009CE5190709F447C08091C4028860073016
:102F20001C4508F440C08091C40280623CC00B3054
:102F3000FCE51F0709F49BC068F409303CE5130762
:102F400009F48BC00A301C4509F063CF8091C4029C
:102F50008C6029C08091C4028B7F0D309CE51907DD
:102F600011F18091C4028D7F0E301C45E0F08091FC
:102F7000C402877F18C00B3FFCE51F0709F461C03E
:102F800060F502313CE5130709F481C078F40031A3
:102F90009CE5190709F477C08091C4028F7B013149
:102FA0001C4509F036CF8093C40233CF0431FCE5D1
:102FB0001F0709F47AC008F470C005311C4509F0F8
:102FC00028CF8091C40282FB992790F921E09227B3
:102FD00090FB82F990FB83F9E6CF0E3F8CE5180752
:102FE00009F449C070F40C3FECE51E0771F18091C3
:102FF000C5028E7F0D3F1C4509F00BCF8093C502A3
:1030000008CF01152DE5120709F44BC060F101301E
:103010001D4509F0FECE8091C502982F90959170C4
:103020008E7F892B90FB81F9E9CF8091C40281606A
:10303000BACF8091C4028260B6CF8091C40284600E
:10304000B2CF8091C5028160D9CF8091C5028260E4
:10305000D5CF8091C4028064A6CF0E94290C8091B4
:10306000C4028068A0CF8091C5028360C7CF8091E1
:10307000C4028E7F98CF8091C5028D7FBFCF809193
:10308000C4028F7E90CF8091C4028F7D8CCF0E942E
:10309000290C8091C4028F7786CF8091C402837FF0
:1030A00082CF8091C5028C7FA9CF0E94290C90917C
:1030B000C402892F97FB87F9805875CF8091AA02A7
:1030C0000631ECE51E0709F07EC38A7A91E009F427
:1030D00090E09093370269E2811165E382E891E024
:1030E0000E948D040E94C804D3CE8091E40280FF28
:1030F0001BC08E7F8093E4026091E4027091E50230
:103100008091E6029091E7020E946B0B1092EA0216
:10311000FFEF20E732E0F15020403040E1F700C0FF
:1031200000000E944B0FB4CE81608093E40261E006
:1031300086950E94DE15ACCE49E156E162E276E169
:103140000E947306A5CE42E256E169E176E1F8CF2E
:103150004BE453E164E573E1F3CF44E553E16BE401
:1031600073E1EECF43E353E16FE373E1E9CF4FE364
:1031700053E163E373E1E4CF4BE153E167E273E1D1
:10318000DFCF47E253E16BE173E1DACF4DE75BE07C
:103190006EE87BE0D5CF4EE85BE06DE77BE0D0CF1B
:1031A00065E082E00E942C1673CE68E086E0FACFDC
:1031B0006EE089E0F7CF64E18FE0F4CF67E185E16D
:1031C000F1CF61E088E1B5CF62E289E1EBCF61E068
:1031D00083E2AFCF01158CE5180709F447C00F3D16
:1031E0001C4509F480C0F70100811181992309F47D
:1031F0007DC0C8010E94EC08D82E682FC8010E942B
:103200003605B8018D2D0E9461078C01882EF701CB
:10321000A580A2944FE0A422D280D1101092A902DE
:103220008091A702877099F0DD2089F0812F807F3F
:10323000803421F080E2800F883048F082E00E94E4
:10324000130A8091A7028770CC24C3948111C12CEA
:10325000B12EB2943FE0B322FBE0FB1508F480C02E
:10326000EB2DF0E0ED54FA4D0C943E230E94290C16
:10327000FFEF24E33CE0F15020403040E1F700C094
:103280000000F89481E08093E00080E28093D80011
:103290001092C9008FE19EE40197F1F700C0000091
:1032A0001DBA109268001CBC10BE1FBA10927A00A2
:1032B00010926E0010926F001092710010927200C6
:1032C0001092C9001092BC0014B817B81AB81DB8F3
:1032D00010BA1092BC0015B818B81BB81EB811BAB5
:1032E0000C94003FD5CD0E94AE0BD2CDC8010E94F8
:1032F0000D05D82E86CF212F2F70A22E107F19F00A
:10330000A29420EFA222DD20C9F0AA2069F080E279
:10331000800F883010F081100BC08091AA02A82A7B
:10332000A092AA020E94C804802F0E94F90518C02A
:103330008091A902A82AA092A902F4CF802F0E940E
:10334000C705AA2069F0A094005E083010F0811033
:1033500046C08091AA02A822A092AA020E94C80494
:103360002B2D2850330B2430310510F40E946706B2
:10337000CC20A9F08091A70280FD11C0F701128234
:103380008595859585950E942B0AC7010E943A165E
:103390008091A7028595859585950E94F00985E025
:1033A000F701DE01119601900D928A95E1F789816E
:1033B0009A810E940D059A81E981F0E026E0929FB2
:1033C000E00DF11D112434E5839FE00DF11D112462
:1033D000EE0FFF1FEF54FD4F859194916DCC8091BE
:1033E000A902A822A092A902B9CF312F3F70932E33
:1033F000107F103219F0929490EF9922882041F0BA
:1034000081E0881631F1DD2079F1AA2041F18CCFDD
:10341000DD2091F09091AB02892D892BA11003C082
:103420000E9479059DCFE1E0AE12FACF981709F41A
:1034300097CF8093AB0294CFA11006C00E94C20424
:10344000892D0E946E058CCFF1E0AF1609F488CF6C
:10345000F5CFDD2031F021E02A1508F481CF892D48
:10346000DFCFA1107DCFECCFAA2051F339E3831237
:1034700084C18FEF97EEE3E081509040E040E1F7A8
:1034800000C000007AC1812F86958695837061F017
:10349000813009F065CFC8019370D11002C090E06F
:1034A00080E00E9483055CCFC8019370D11002C0F8
:1034B00090E080E00E94990553CF812F837009F03E
:1034C00066C0D1104DCF802F829586958770880F6A
:1034D000880F602F6F70462E512C712C612C082E96
:1034E00004C0440C551C661C771C0A94D2F740E0BB
:1034F00050E0BA0104FF0FC04FE050E060E070E020
:1035000004C0440F551F661F771F8A95D2F7409558
:10351000509560957095812F869586958370823041
:1035200019F1D8F40091AC021091AD022091AE02D5
:103530003091AF02813069F04429552966297729F5
:10354000CB01BA0160237123822393230E94BD051E
:1035500007CF402A512A622A732ACB01BA01642973
:10356000752986299729F2CF442955296629772973
:103570000091AC021091AD022091AE023091AF02E9
:10358000CB01BA016027712782279327DFCF869569
:10359000DD2011F0812F8170882309F4E1CE802F86
:1035A000829586958770880F880F602F6F70462EE2
:1035B000512C712C612C082E04C0440C551C661C27
:1035C000771C0A94D2F740E050E0BA0104FF0FC024
:1035D0004FE050E060E070E004C0440F551F661FEC
:1035E000771F8A95D2F74095509560957095812FF9
:1035F000869586958370823019F1D8F40091C702C0
:103600001091C8022091C9023091CA02813069F03C
:103610004429552966297729CB01BA0160237123F2
:10362000822393230E94E4099BCE402A512A622AD6
:10363000732ACB01BA016429752986299729F2CF0B
:1036400044295529662977290091C7021091C8029B
:103650002091C9023091CA02CB01BA0160277127BB
:1036600082279327DFCF1F70DD2029F0812F0E9452
:103670002B0A802FD5CE802F0E946E05812F0E94AD
:10368000F0096ECE802FF2EF8F1609F44EC0F815B8
:1036900078F020EF821619F131EF831609F43DC05E
:1036A000DD2009F465C0A1103FCE812F8F713AC093
:1036B00093EF891609F43EC0E4EF8E12F1CFDD20BE
:1036C00009F44BC01F71812F0E942B0A28E0129F22
:1036D000C001112483608093A702812F23C0DD20C5
:1036E000B9F0A1103DCE1F7161E070E080E090E084
:1036F00004C0660F771F881F991F1A95D2F7009193
:10370000C7021091C8022091C9023091CA02A6CF07
:10371000F1E0FA1508F424CEE6CF812F8F71DD2079
:1037200009F4ADCF0E942B0A1BCE812F8F71DD20B3
:10373000C9F3A5CF60E070E0CB01DD2009F472CFC2
:103740001F7161E070E080E090E004C0660F771FB9
:10375000881F991F1A95D2F765CF81E00E94130A3E
:1037600031E03A1508F0FCCD82E00E94130AF8CD52
:10377000AA2039F0893309F47CCE802F0E94C70536
:10378000EFCD812F8F717BCF85E0DE011196019007
:103790000D928A95E1F7F701228189819A812111A1
:1037A000A1CA0E940D05082FA5CA06311C4509F0C3
:1037B0001ACD8091370269E2811165E382E891E0D8
:1037C0000E9463048FCC8272F801E35CFC45E43113
:1037D000F10508F0FFCCE154FA4D0C943E231F9301
:1037E000CF93DF9380913D02807FA9F480913A02CC
:1037F000882389F080916F02D0913E026091380257
:1038000070913902A0913B02B0913C02C62FC723B0
:1038100016E0D81304C0DF91CF911F91089590E076
:10382000109711F0CF3F19F401968770F2CF189FCF
:103830009001199F300D1124F901E15CFD4F418188
:103840004713F2CF40814613EFCF42814111ECCFB5
:10385000438154814A1B5B0B483C510528F78091FA
:103860003D028F70806180933D02F901EC5BFD4F5A
:1038700080818F708061808388E392E00E943A1695
:10388000DF91CF911F910C946405AF92BF92CF92BC
:10389000DF92EF92FF920F931F93CF93DF93CDB7F9
:1038A000DEB761970FB6F894DEBF0FBECDBF8C01B7
:1038B00085E0F801DE011D9601900D928A95E1F7F1
:1038C000F80180819181E28028E3A22E22E0B22ECD
:1038D00060913B0270913C026115710509F43EC193
:1038E0003091380240913902232F24232F3F09F4CD
:1038F00035C1C380D480F0903A02F601E61BF70B85
:10390000FF2009F4FBC020913D02522F507FE83C7C
:10391000F10508F0BBC0511178C0FE2C491321C03D
:1039200038131FC0E1101DC02F70206120933D028D
:10393000C5010E943A1680913D02F80185838F2DC2
:1039400061960FB6F894DEBF0FBECDBFDF91CF9169
:103950001F910F91FF90EF90DF90CF90BF90AF90AD
:103960000895CD2829F0282F29232F3F09F014C1CD
:1039700020E0F22FF170DF2E20FF3DC020916F027A
:1039800040913E0256E0241315C08D879E878D8599
:103990009E850E942E09292F22952F702230F8F043
:1039A000243020F59F70F9F0F8019581907FD9F4CB
:1039B000D12C1FC030E0529FF001539FF00D112415
:1039C000E15CFD4F6181961306C06081861303C0E0
:1039D0006281E61210C02F5F3F4F2770D4CF9F70D7
:1039E00011F0882329F3805E883010F3C8010E940B
:1039F0003A16FD2CA4CFEE2009F4A1CF80913D0210
:103A0000816080933D02F12C9ACF491312C0381384
:103A100010C0E1100EC0F8012583C8010E943A16BB
:103A200086E0F801A8E3B2E001900D928A95E1F7F3
:103A300086CF8D879E878D859E850E943809882335
:103A400009F1EE20F9F080913D02803270F0209172
:103A500038023091390238872F831986DB86CA866F
:103A60008C87CE0107960E943A1686E0F801A8E3FB
:103A7000B2E001900D928A95E1F70E94EF1BFF24BE
:103A8000F3945DCFC8010E943A16F9CF51110AC0D4
:103A900088E392E00E943A1686E0F50111928A9539
:103AA000E9F7B1CF49130FC038130DC0E1100BC0B7
:103AB000F8012583C8010E943A1686E0F5011192AB
:103AC0008A95E9F73CCF8D879E878D859E850E94DC
:103AD00038098823B9F2EE20A9F280913D028032A4
:103AE00020F220913802309139023A8329831B82D7
:103AF000DD82CC828E83CE010196B5CFE83CF10504
:103B0000E0F6FE2CEE2009F4BDCF491316C03813A1
:103B100014C080913D0280FD83CF982F907F09F4DF
:103B20007FCFF8018583903F09F477CF982F907F5E
:103B3000905F8F70892B858370CF8D879E878D8551
:103B40009E850E943809811190CF80913D0281604D
:103B500080933D02C8010E943A16F1CEEE2009F48E
:103B600091CF8D879E878D859E850E943809F82E7E
:103B7000882309F487CF86E0F801A8E3B2E001903A
:103B80000D928A95E1F780913802909139020E9456
:103B90002E090E94EF1BD3CE21E02E25EACE1F93E3
:103BA000CF93DF93CDB7DEB767970FB6F894DEBF3C
:103BB0000FBECDBF4B8B5C8B6D8B7E8B8F8B1A8A30
:103BC000198A85E0FE017396DE011D9601900D9223
:103BD0008A95E1F786E0FE013D96DE011796019099
:103BE0000D928A95E1F7CE0107960E94451C81113E
:103BF00012C086E0FE013796DE01119601900D920B
:103C00008A95E1F78A859B85892B29F08F81988594
:103C100089238F3FB1F516E080916F0290913E02AB
:103C200089131DC067960FB6F894DEBF0FBECDBFD7
:103C3000DF91CF911F91089596E0929FD001939FBD
:103C4000B00D1124A15CBD4FFE01319601900D9283
:103C50009A95E1F780933E020E946405DCCF819F34
:103C6000C0011124815C9D4F0E94451C8823D1F224
:103C700080916F0290E001968770992780936F0280
:103C8000CBCF20913E0230E0C90101968770992781
:103C900040916F024817190679F60E94290C10927C
:103CA0003E0210926F0286E0E8E3F2E0DF011D922F
:103CB0008A95E9F7B0CF8F929F92BF92CF92DF9211
:103CC000EF92FF920F931F93CF93DF938091180190
:103CD00090911901892B91F08091A3018F5F8093BE
:103CE000A30181110BC00E945D1390E09093190114
:103CF00080931801892B11F40E94E30A26EB822E8F
:103D000022E0922E740110E000E097E0C92EC00E70
:103D1000802F0E94F70E8C2D0E94F70E802F0E949C
:103D2000D413E70199917E01D12C891729F0FE0166
:103D300031978083DD24D3948C2D0E94D413F70116
:103D40009681891709F47AC0868381E08D29182B22
:103D50000E944C0A0F5F0730C1F60E944A1560911D
:103D6000A5017091A6019093A6018093A5012091D1
:103D7000A40130E0261B370B820F931F6BEF70E01E
:103D80000E941623E82E392F082F8093A401F0906B
:103D9000A801FF2009F45EC01092A801E091B002D2
:103DA000F091B102AF01425F5F4F20E08BEFB82E80
:103DB0006BEF70E0A191AB3F99F0CA2ED12C8E2D04
:103DC000932F0A17E8F18C199D09092E000CAA0BF4
:103DD000BB0BC297A105B105C8F1DF011197BC92D9
:103DE0004E175F0739F72093A801111102C0211166
:103DF00033C01092A701A091B002B091B10290918E
:103E0000A801E0EDF2E080E03191E40129914E015A
:103E1000321751F03C913B3FD9F40C93AF01415024
:103E20005109EA01288391E01196D2E0EE3DFD07A9
:103E300059F79093A8018093A70112C080E086CF24
:103E4000DB01AC19BD098A0F9B1FBFCF2F2DC8CF37
:103E500081E0EACF1111CDCF8091A7018111C9CFA7
:103E6000812FDF91CF911F910F91FF90EF90DF9005
:103E7000CF90BF909F908F900895CDB7DEB72A97CF
:103E80000FB6F894DEBF0FBECDBF84B7877F84BF67
:103E90000FB6F894A89580916000886180936000C7
:103EA000109260000FBE80E890E00FB6F894809307
:103EB0006100909361000FBE85B7806885BF85B7AC
:103EC000806885BF0E94D4020E949F038091E20017
:103ED00084608093E2007894809120038823A1F08D
:103EE0001091E9001F709091EC00892F817090FD76
:103EF00080E8182B1092E9008091E80083FD0E9471
:103F00003E0C1F701093E90082E084BD93E095BDE4
:103F10009AEF97BD80936E000E945D1390E090939E
:103F20001901809318010E944C0A0E945B0AE6EB7B
:103F3000F2E084EC92E0A0EDB2E011921D928E17B7
:103F40009F07D9F78EE090E00E94AF238093B002E4
:103F50009093B102FC010E962BEF21938E179F07D1
:103F6000E1F790E080E00E94F5248F3E9E4F11F033
:103F70000E94AE0B89EA8093800089E080938100E3
:103F800024982C983F988AB18F7C8AB96E98479A6A
:103F90008BB180638BB9769A8FE090E00E94EF241A
:103FA0006093B2027093B3028093B4029093B5020F
:103FB00067708FEF689FB0011124759567957595AF
:103FC00067957727709389006093880070938B00C2
:103FD00060938A0070938D0060938C000E94E30AC6
:103FE00090E080E00E94F5248F3E9E4F11F00E94E9
:103FF000AE0B82E090E00E94E7248093EC020E94E6
:104000005D0B9093C5028093C40283E090E00E9410
:10401000E724682F70E090E080E00E94BD05609189
:10402000C7027091C8028091C9029091CA020E9491
:1040300071098091C602811136C090E080E00E9433
:10404000F5248F3E9E4F21F00E94AE0B0E949F0BE5
:1040500088E090E00E94EF246093E4027093E50210
:104060008093E6029093E7026E7F71F40E949F0BAB
:1040700088E090E00E94EF246093E4027093E502F0
:104080008093E6029093E7020E9478061092EA027B
:104090008091E40280FF04C060E086950E94DE15F6
:1040A00081E08093C6026091C7027091C80280913E
:1040B000C9029091CA020E9471098AE191E090932D
:1040C000CC028093CB02A8E1EA2EF12CB0E4CB2EF7
:1040D00080ED92E01EE0D12ED80E80912003BB240B
:1040E000B39400E112E1853009F4EDC00E945B1E3B
:1040F000ADEEB2E0E0EDF2E010E000E0302F8191B3
:104100002D91281709F4FFC090E0BB24B394282711
:10411000422F4B2109F4F2C099833A838B2191E01D
:1041200009F490E09B830E944A158160782F9D835B
:104130008C8349815A816B818D810E94CF1DF8014A
:10414000E351FD4F8081B826B0828091EA02882336
:1041500009F44CC08091E902E091E402E695E81B85
:10416000E093E002823009F0E5C0F0E0EE5EFB4F44
:10417000E4910E2F10E0F1E6AF2EF2E1BF2E809118
:10418000E102882389F01092E1020E944A15980109
:1041900020953095820F931F9093DF028093DE026B
:1041A0001092E3021092E2022091DE023091DF02CF
:1041B0004FB7F89480912A0390912B03A0912C0380
:1041C000B0912D034FBF821B930B8017910770F0A6
:1041D000E091DE02F091DF020E0F1F1F1093DF024D
:1041E0000093DE028EED92E0F50109950E946706CC
:1041F0009091EB02891709F470CF0E9467068093B3
:10420000EB026BCF80912003843009F43DC0109203
:10421000CD020FB6F894A895E09260000FBEC09250
:1042200060001092EA028091CF02811116C0B09214
:10423000CF028091E402982F91709093CE028E7FEE
:104240008093E4022FEF80E792E02150804090407D
:10425000E1F700C000000E944B0F83B7817F8460AC
:1042600083BF83B7816083BF7894889583B78E7F3F
:1042700083BF0FB6F894A895809160008861809301
:104280006000109260000FBE80911F038823D9F058
:104290000E945D1390E090931901809318010E9491
:1042A0004C0A0E945B0AE0EDF2E0119222E0EE3D42
:1042B000F207D9F70E945B1EE0EDF2E081918111D7
:1042C000A5C0DE12FBCF80912003853009F49ACF80
:1042D0000E94290C0E9467061092CF028091CE02A4
:1042E000882349F08091E40281608093E40260E0D9
:1042F00086950E94DE150E94C815F8CE9F5FBB0C04
:10430000963009F005CF0F5F1F4F0E30110509F0F1
:10431000F5CE8FEF8E838F8318860E944A158160B9
:10432000782F9A8789874E815F8168858A850E9468
:10433000CF1D0BCF863059F4F0E0E15FFB4FE491E5
:104340000E2F10E0E5E7AE2EE2E1BE2E18CF893049
:1043500061F4E695F0E0E45FFB4FE4910E2F10E08E
:1043600079E4A72E70E1B72E0ACF8F3061F4E6957D
:10437000F0E0E75FFB4FE4910E2F10E063E7A62E1D
:1043800060E1B62EFCCE853159F4F0E0EA5FFB4FD8
:10439000E4910E2F10E052EEA52E50E1B52EEFCE97
:1043A00008E210E022E3A22E21E1B22E883109F4C6
:1043B000E6CE833249F4E4E0F4E00591149146E05E
:1043C000A42E42E1B42EDBCE04EF11E09BEBA92E2C
:1043D00091E1B92E843209F4D2CE853281F48E2F48
:1043E00063E00E94FC22E92FF0E0EF5FFB4FE491D5
:1043F0000E2F10E030ECA32E3FE0B32EC0CE00ED28
:1044000017E08EE5A82E84E0B82EB9CE09BD19BDFF
:1044100009B400FEFDCF8091D8008F7D8093D80035
:104420008091E00082608093E0008091E00081FD57
:10443000FCCF0E94290C47CF1F921FB61F92112458
:104440008F939F93AF93BF938091CD02811113C03F
:1044500080912A0390912B03A0912C03B0912D03FE
:104460004196A11DB11D80932A0390932B03A09325
:104470002C03B0932D03BF91AF919F918F911F900B
:104480001FBE1F9018951092B9008CE08093B80061
:104490000895EF92FF920F931F93CF93DF93182FFE
:1044A000EB011092BC0084EA8093BC000E944A1584
:1044B0007C018091BC0087FF27C08091B900887F74
:1044C000883029F08091B900887F8031D9F5109328
:1044D000BB0084E88093BC000E944A158C01809147
:1044E000BC0087FF24C02091B900287F90E080E0C5
:1044F0002831B1F081E090E0203411F490E080E0C8
:104500009195819591090CC0CF3FDC0791F20E94F3
:104510004A158E199F098C179D0758F28EEF9FEF51
:10452000DF91CF911F910F91FF90EF900895CF3FB2
:10453000DC07A9F20E944A15801B910B8C179D077E
:1045400070F2ECCF8FEF9FEFEBCF0F931F93CF93D2
:10455000DF93EB018093BB0084E88093BC000E9452
:104560004A158C018091BC0087FF11C02091B900D1
:10457000287F81E090E0283211F490E080E091956E
:1045800081959109DF91CF911F910F910895CF3FB0
:10459000DC0741F30E944A15801B910B8C179D0785
:1045A00008F38EEF9FEFEECF0F931F93CF93DF9320
:1045B000EC0184E88093BC000E944A158C01809134
:1045C000BC0087FF08C08091BB0090E0DF91CF91D5
:1045D0001F910F910895CF3FDC0789F30E944A1580
:1045E000801B910B8C179D0750F38EEF9FEFEECF42
:1045F00084E98093BC000895991B79E004C0991F59
:10460000961708F0961B881F7A95C9F7809508952C
:1046100087FB082E062687FD819567FD61950E9420
:10462000FC220EF4919507FC81950895AA1BBB1BF3
:1046300051E107C0AA1FBB1FA617B70710F0A61BA2
:10464000B70B881F991F5A95A9F780959095BC01C3
:10465000CD01089597FB072E16F4009407D077FD3F
:1046600009D00E94162307FC05D03EF49095819551
:104670009F4F0895709561957F4F0895EE0FFF1F2E
:104680000590F491E02D09940E948325332312F4C0
:104690008A1B9B0B0C944E230E948325B7FF089521
:1046A000821B930B08958F929F92AF92BF92CF92ED
:1046B000DF92EF92FF92CF93DF93EC0168817981D3
:1046C0008A819B81611571058105910521F464E260
:1046D00079ED8BE597E02DE133EF41E050E00E946A
:1046E0002F2549015A019B01AC01A7EAB1E40E94C0
:1046F0004E256B017C01ACEEB4EFA50194010E9444
:104700005C25DC01CB018C0D9D1DAE1DBF1DB7FFCF
:1047100003C00197A109B04888839983AA83BB830A
:104720009F77DF91CF91FF90EF90DF90CF90BF9078
:10473000AF909F908F9008950E945323089580E03A
:1047400091E00E9453230895B0E0A0E0809300011F
:1047500090930101A0930201B093030108950F9378
:104760001F93CF93DF938230910510F482E090E0A5
:10477000E0913303F091340330E020E0B0E0A0E0BA
:10478000309799F42115310509F447C0281B390BDE
:1047900024303105C0F58A819B816115710571F165
:1047A000FB0193838283FE0111C04081518102810C
:1047B000138148175907F8F04817590799F41097CB
:1047C00061F012960C93129713961C933296CF01B8
:1047D000DF91CF911F910F910895009333031093B0
:1047E0003403F4CF2115310519F04217530718F49B
:1047F0009A01BD01EF01DF01F801C2CF90933403AC
:1048000080933303D0CFFE01E20FF31F8193919386
:104810002250310939832883DACF20913103309136
:104820003203232B41F4209106013091070130938C
:1048300032032093310320910401309105012115A9
:10484000310541F42DB73EB740910801509109015F
:10485000241B350B4091310350913203421753070B
:1048600008F0B5CF241B350B2817390708F4AFCF54
:10487000BC016E5F7F4F2617370708F4A8CF640F7F
:10488000751F7093320360933103FA018193919302
:104890009ECFCF93DF930097E9F0FC01329713820C
:1048A0001282C0913303D0913403DE0130E020E066
:1048B0002097A1F420813181820F931F2091310331
:1048C000309132032817390709F067C0F09332039B
:1048D000E0933103DF91CF910895DA01AE17BF075E
:1048E00008F040C012964D915C9113979D014115BF
:1048F000510599F7D9011396FC93EE9312974D91B8
:104900005D91A40FB51FEA17FB0779F480819181AF
:104910000296840F951FD90111969C938E938281E4
:10492000938113969C938E931297B0E0A0E08A81B6
:104930009B810097B9F5FE0181919191E80FF91FD4
:1049400080913103909132038E179F0719F61097CB
:1049500061F51092340310923303D0933203C09365
:104960003103B8CFB383A28340815181840F951F57
:10497000A817B90771F44E5F5F4F8D919C91119705
:10498000480F591F5183408312968D919C919383B8
:1049900082832115310509F0ADCFF0933403E09304
:1049A000330398CFDE01EC01C2CF13961C921E9206
:1049B0001297D3CFFC014150504030F001900616C1
:1049C000D1F73197CF010895882799270895F9994C
:1049D000FECF92BD81BDF89A992780B50895A6E1D2
:1049E000B0E044E050E00C942125A8E1B0E042E0C2
:1049F00050E00C942125262FF999FECF92BD81BD60
:104A0000F89A019700B4021639F01FBA20BD0FB60C
:104A1000F894FA9AF99A0FBE08950396272F0E94E8
:104A2000FC240E94FB24252F0E94FC24242F0C949C
:104A3000FC240196272F0E94FC240C94FB24DC010B
:104A4000CB01FC01F999FECF06C0F2BDE1BDF89A99
:104A5000319600B40D9241505040B8F70895052E9C
:104A600097FB1EF400940E94462557FD07D00E9434
:104A7000612507FC03D04EF40C94462550954095D3
:104A8000309521953F4F4F4F5F4F089590958095FA
:104A9000709561957F4F8F4F9F4F08950E9483259A
:104AA000A59F900DB49F900DA49F800D911D112482
:104AB0000895B7FF0C944E250E944E25821B930B40
:104AC0000895A1E21A2EAA1BBB1BFD010DC0AA1F4F
:104AD000BB1FEE1FFF1FA217B307E407F50720F067
:104AE000A21BB30BE40BF50B661F771F881F991FE2
:104AF0001A9469F760957095809590959B01AC012B
:104B0000BD01CF010895A29FB001B39FC001A39F33
:104B1000700D811D1124911DB29F700D811D1124F6
:104B2000911D0895F894FFCF47094709500950098E
:104B300052095009500950094709470957095009B6
:104B400050095709CB09D709DC09D509DA09E10968
:104B5000DF09210D490DDF0E490DDF0E7C0D9D0D86
:104B6000DF0E9A0EA70E7B197B19F519F519431A5A
:104B7000B019B019B0195D1A331B421B421B7518CE
:104B80009C18A318A818AD18B218B718BC18C118EB
:104B9000C618CB186E17D018D518D818DB18DE1821
:064BA000E118E418E7181B
:104BA6000100000000003503200001191A1B1C1D1E
:104BB6001E1F20212201020120006004A30A5F04B7
:104BC6009F0A9B0A01000102020202060606090963
:104BD600090909090F0F0F0F0F0F151515181919C8
:104BE60019191919191919192324252525252525D2
:104BF600818283E200E900EA00B500B600B700CD85
:104C0600008301CC008A019201940121022302242F
:104C1600022502260227022A02B300B4006F0070A2
:024C260000008C
:00000001FF
